{
  "_format": "hh-sol-artifact-1",
  "contractName": "ModelUpdateTracker",
  "sourceName": "contracts/ModelUpdateTracker.sol",
  "abi": [
    {
      "inputs": [],
      "stateMutability": "nonpayable",
      "type": "constructor"
    },
    {
      "anonymous": false,
      "inputs": [
        {
          "indexed": true,
          "internalType": "address",
          "name": "hospital",
          "type": "address"
        },
        {
          "indexed": false,
          "internalType": "uint256",
          "name": "timestamp",
          "type": "uint256"
        }
      ],
      "name": "HospitalRegistered",
      "type": "event"
    },
    {
      "anonymous": false,
      "inputs": [
        {
          "indexed": true,
          "internalType": "address",
          "name": "hospital",
          "type": "address"
        },
        {
          "indexed": true,
          "internalType": "uint256",
          "name": "round",
          "type": "uint256"
        },
        {
          "indexed": false,
          "internalType": "string",
          "name": "ipfsHash",
          "type": "string"
        },
        {
          "indexed": false,
          "internalType": "uint256",
          "name": "timestamp",
          "type": "uint256"
        }
      ],
      "name": "ModelUpdateSubmitted",
      "type": "event"
    },
    {
      "anonymous": false,
      "inputs": [
        {
          "indexed": true,
          "internalType": "uint256",
          "name": "round",
          "type": "uint256"
        },
        {
          "indexed": false,
          "internalType": "uint256",
          "name": "totalUpdates",
          "type": "uint256"
        },
        {
          "indexed": false,
          "internalType": "uint256",
          "name": "timestamp",
          "type": "uint256"
        }
      ],
      "name": "RoundCompleted",
      "type": "event"
    },
    {
      "inputs": [],
      "name": "advanceRound",
      "outputs": [],
      "stateMutability": "nonpayable",
      "type": "function"
    },
    {
      "inputs": [],
      "name": "currentRound",
      "outputs": [
        {
          "internalType": "uint256",
          "name": "",
          "type": "uint256"
        }
      ],
      "stateMutability": "view",
      "type": "function"
    },
    {
      "inputs": [
        {
          "internalType": "address",
          "name": "hospitalAddress",
          "type": "address"
        }
      ],
      "name": "getHospitalContribution",
      "outputs": [
        {
          "components": [
            {
              "internalType": "address",
              "name": "hospitalAddress",
              "type": "address"
            },
            {
              "internalType": "uint256",
              "name": "totalContributions",
              "type": "uint256"
            },
            {
              "internalType": "uint256",
              "name": "lastContributionRound",
              "type": "uint256"
            },
            {
              "internalType": "bool",
              "name": "isRegistered",
              "type": "bool"
            }
          ],
          "internalType": "struct ModelUpdateTracker.HospitalContribution",
          "name": "",
          "type": "tuple"
        }
      ],
      "stateMutability": "view",
      "type": "function"
    },
    {
      "inputs": [],
      "name": "getRegisteredHospitalsCount",
      "outputs": [
        {
          "internalType": "uint256",
          "name": "",
          "type": "uint256"
        }
      ],
      "stateMutability": "view",
      "type": "function"
    },
    {
      "inputs": [
        {
          "internalType": "uint256",
          "name": "round",
          "type": "uint256"
        }
      ],
      "name": "getRoundUpdateCount",
      "outputs": [
        {
          "internalType": "uint256",
          "name": "",
          "type": "uint256"
        }
      ],
      "stateMutability": "view",
      "type": "function"
    },
    {
      "inputs": [
        {
          "internalType": "uint256",
          "name": "round",
          "type": "uint256"
        }
      ],
      "name": "getRoundUpdates",
      "outputs": [
        {
          "components": [
            {
              "internalType": "address",
              "name": "hospitalAddress",
              "type": "address"
            },
            {
              "internalType": "uint256",
              "name": "round",
              "type": "uint256"
            },
            {
              "internalType": "string",
              "name": "ipfsHash",
              "type": "string"
            },
            {
              "internalType": "uint256",
              "name": "timestamp",
              "type": "uint256"
            },
            {
              "internalType": "bool",
              "name": "isValid",
              "type": "bool"
            }
          ],
          "internalType": "struct ModelUpdateTracker.ModelUpdate[]",
          "name": "",
          "type": "tuple[]"
        }
      ],
      "stateMutability": "view",
      "type": "function"
    },
    {
      "inputs": [
        {
          "internalType": "address",
          "name": "",
          "type": "address"
        }
      ],
      "name": "hospitalContributions",
      "outputs": [
        {
          "internalType": "address",
          "name": "hospitalAddress",
          "type": "address"
        },
        {
          "internalType": "uint256",
          "name": "totalContributions",
          "type": "uint256"
        },
        {
          "internalType": "uint256",
          "name": "lastContributionRound",
          "type": "uint256"
        },
        {
          "internalType": "bool",
          "name": "isRegistered",
          "type": "bool"
        }
      ],
      "stateMutability": "view",
      "type": "function"
    },
    {
      "inputs": [],
      "name": "owner",
      "outputs": [
        {
          "internalType": "address",
          "name": "",
          "type": "address"
        }
      ],
      "stateMutability": "view",
      "type": "function"
    },
    {
      "inputs": [
        {
          "internalType": "address",
          "name": "hospitalAddress",
          "type": "address"
        }
      ],
      "name": "registerHospital",
      "outputs": [],
      "stateMutability": "nonpayable",
      "type": "function"
    },
    {
      "inputs": [
        {
          "internalType": "uint256",
          "name": "",
          "type": "uint256"
        }
      ],
      "name": "registeredHospitals",
      "outputs": [
        {
          "internalType": "address",
          "name": "",
          "type": "address"
        }
      ],
      "stateMutability": "view",
      "type": "function"
    },
    {
      "inputs": [
        {
          "internalType": "uint256",
          "name": "",
          "type": "uint256"
        },
        {
          "internalType": "uint256",
          "name": "",
          "type": "uint256"
        }
      ],
      "name": "roundUpdates",
      "outputs": [
        {
          "internalType": "address",
          "name": "hospitalAddress",
          "type": "address"
        },
        {
          "internalType": "uint256",
          "name": "round",
          "type": "uint256"
        },
        {
          "internalType": "string",
          "name": "ipfsHash",
          "type": "string"
        },
        {
          "internalType": "uint256",
          "name": "timestamp",
          "type": "uint256"
        },
        {
          "internalType": "bool",
          "name": "isValid",
          "type": "bool"
        }
      ],
      "stateMutability": "view",
      "type": "function"
    },
    {
      "inputs": [
        {
          "internalType": "string",
          "name": "ipfsHash",
          "type": "string"
        },
        {
          "internalType": "uint256",
          "name": "round",
          "type": "uint256"
        }
      ],
      "name": "submitModelUpdate",
      "outputs": [],
      "stateMutability": "nonpayable",
      "type": "function"
    }
  ],
  "bytecode": "0x608060405234801561001057600080fd5b50600080546001600160a01b03191633178155600455610e1e806100356000396000f3fe608060405234801561001057600080fd5b50600436106100b45760003560e01c80638a19c8bc116100715780638a19c8bc1461023b5780638a629491146102445780638da5cb5b14610264578063a1c25ecb1461028f578063c5b99858146102a2578063d2ac8bea146102b557600080fd5b80630dec9a0b146100b95780631ba9998b146100ce5780633102dba6146100d657806336a9e0d0146100ed5780633f805dd5146101ab5780633f9b9d2e146101cb575b600080fd5b6100cc6100c7366004610999565b6102d9565b005b6100cc610501565b6003545b6040519081526020015b60405180910390f35b61016d6100fb366004610a4e565b60408051608080820183526000808352602080840182905283850182905260609384018290526001600160a01b03958616825260028082529185902085519384018652805490961683526001860154908301528401549281019290925260039092015460ff1615159181019190915290565b6040516100e4919081516001600160a01b03168152602080830151908201526040808301519082015260609182015115159181019190915260800190565b6101be6101b9366004610a7e565b6105b7565b6040516100e49190610add565b61020f6101d9366004610a4e565b600260208190526000918252604090912080546001820154928201546003909201546001600160a01b0390911692919060ff1684565b604080516001600160a01b039095168552602085019390935291830152151560608201526080016100e4565b6100da60045481565b6100da610252366004610a7e565b60009081526001602052604090205490565b600054610277906001600160a01b031681565b6040516001600160a01b0390911681526020016100e4565b61027761029d366004610a7e565b6106fa565b6100cc6102b0366004610a4e565b610724565b6102c86102c3366004610b7f565b61089d565b6040516100e4959493929190610ba1565b3360009081526002602052604090206003015460ff166103405760405162461bcd60e51b815260206004820152601760248201527f486f73706974616c206e6f74207265676973746572656400000000000000000060448201526064015b60405180910390fd5b60045461034e906001610bf7565b8111156103955760405162461bcd60e51b81526020600482015260156024820152740a4deeadcc840dceadac4cae440e8dede40d0d2ced605b1b6044820152606401610337565b60008251116103e65760405162461bcd60e51b815260206004820152601960248201527f4950465320686173682063616e6e6f7420626520656d707479000000000000006044820152606401610337565b6040805160a081018252338152602080820184815282840186815242606085015260016080850181905260008781528185529586208054808301825590875293909520845160059094020180546001600160a01b0319166001600160a01b03909416939093178355905193820193909355915190918291600282019061046c9082610c99565b50606082015160038201556080909101516004909101805460ff191691151591909117905533600090815260026020526040812060018101805491926104b183610d59565b909155505060028101839055604051839033907f32f0449d6bbe8b4c36dc13d33f1039f111150eed7019b3cbfa783fb94dbd47bd906104f39088904290610d72565b60405180910390a350505050565b6000546001600160a01b0316331461052b5760405162461bcd60e51b815260040161033790610d94565b6004805490600061053b83610d59565b9190505550600160045461054f9190610dd5565b7f09e37b14a14603eae0cbff675fd9d7e8ee2567f26f0acf9e1d7a3ba33fcbc1096001600060016004546105839190610dd5565b815260200190815260200160002080549050426040516105ad929190918252602082015260400190565b60405180910390a2565b606060016000838152602001908152602001600020805480602002602001604051908101604052809291908181526020016000905b828210156106ef5760008481526020908190206040805160a0810182526005860290920180546001600160a01b031683526001810154938301939093526002830180549293929184019161063f90610c10565b80601f016020809104026020016040519081016040528092919081815260200182805461066b90610c10565b80156106b85780601f1061068d576101008083540402835291602001916106b8565b820191906000526020600020905b81548152906001019060200180831161069b57829003601f168201915b5050509183525050600382015460208083019190915260049092015460ff16151560409091015290825260019290920191016105ec565b505050509050919050565b6003818154811061070a57600080fd5b6000918252602090912001546001600160a01b0316905081565b6000546001600160a01b0316331461074e5760405162461bcd60e51b815260040161033790610d94565b6001600160a01b03811660009081526002602052604090206003015460ff16156107ba5760405162461bcd60e51b815260206004820152601b60248201527f486f73706974616c20616c7265616479207265676973746572656400000000006044820152606401610337565b604080516080810182526001600160a01b038381168083526000602080850182815285870183815260016060880181815286865260028086528a872099518a546001600160a01b031990811691909a16178a55935189830155915192880192909255516003968701805460ff191691151591909117905585549081018655949091527fc2575a0e9e593c00f959f8c92f12db2869c3395a3b0502d05e2516446f71f85b9093018054909216811790915591514281527f34f43c7a593abaeffae4de73d30f0b0b2632257b5798a8a44a1bc8116b19fbfe910160405180910390a250565b600160205281600052604060002081815481106108b957600080fd5b60009182526020909120600590910201805460018201546002830180546001600160a01b039093169550909350906108f090610c10565b80601f016020809104026020016040519081016040528092919081815260200182805461091c90610c10565b80156109695780601f1061093e57610100808354040283529160200191610969565b820191906000526020600020905b81548152906001019060200180831161094c57829003601f168201915b50505050600383015460049093015491929160ff16905085565b634e487b7160e01b600052604160045260246000fd5b600080604083850312156109ac57600080fd5b823567ffffffffffffffff808211156109c457600080fd5b818501915085601f8301126109d857600080fd5b8135818111156109ea576109ea610983565b604051601f8201601f19908116603f01168101908382118183101715610a1257610a12610983565b81604052828152886020848701011115610a2b57600080fd5b826020860160208301376000602093820184015298969091013596505050505050565b600060208284031215610a6057600080fd5b81356001600160a01b0381168114610a7757600080fd5b9392505050565b600060208284031215610a9057600080fd5b5035919050565b6000815180845260005b81811015610abd57602081850181015186830182015201610aa1565b506000602082860101526020601f19601f83011685010191505092915050565b60006020808301818452808551808352604092508286019150828160051b87010184880160005b83811015610b7157888303603f19018552815180516001600160a01b0316845287810151888501528681015160a088860181905290610b4582870182610a97565b606084810151908801526080938401511515939096019290925250509386019390860190600101610b04565b509098975050505050505050565b60008060408385031215610b9257600080fd5b50508035926020909101359150565b60018060a01b038616815284602082015260a060408201526000610bc860a0830186610a97565b6060830194909452509015156080909101529392505050565b634e487b7160e01b600052601160045260246000fd5b80820180821115610c0a57610c0a610be1565b92915050565b600181811c90821680610c2457607f821691505b602082108103610c4457634e487b7160e01b600052602260045260246000fd5b50919050565b601f821115610c9457600081815260208120601f850160051c81016020861015610c715750805b601f850160051c820191505b81811015610c9057828155600101610c7d565b5050505b505050565b815167ffffffffffffffff811115610cb357610cb3610983565b610cc781610cc18454610c10565b84610c4a565b602080601f831160018114610cfc5760008415610ce45750858301515b600019600386901b1c1916600185901b178555610c90565b600085815260208120601f198616915b82811015610d2b57888601518255948401946001909101908401610d0c565b5085821015610d495787850151600019600388901b60f8161c191681555b5050505050600190811b01905550565b600060018201610d6b57610d6b610be1565b5060010190565b604081526000610d856040830185610a97565b90508260208301529392505050565b60208082526021908201527f4f6e6c79206f776e65722063616e2063616c6c20746869732066756e6374696f6040820152603760f91b606082015260800190565b81810381811115610c0a57610c0a610be156fea264697066735822122021c66137e821ac2d81c365171504f59d73ec486870160524616f841b5e0d578d64736f6c63430008140033",
  "linkReferences": {},
  "deployedLinkReferences": {}
}